:020000040800F2
:10000000980A002089010008C1110008B9110008F0
:10001000BD1100083D0F00082F2700080000000058
:1000200000000000000000000000000001190008AE
:10003000410F000800000000E9170008F51A000849
:10004000A3010008A3010008A3010008A301000800
:10005000A3010008A3010008A3010008A3010008F0
:10006000A3010008A3010008A3010008A3010008E0
:10007000A3010008A3010008A3010008A3010008D0
:10008000A3010008A3010008A3010008A3010008C0
:10009000A3010008A3010008A3010008A3010008B0
:1000A000A3010008A3010008A3010008A3010008A0
:1000B000A3010008591B0008A3010008A3010008C0
:1000C000A3010008A3010008A3010008A301000880
:1000D000A3010008E51F0008A3010008B1220008E1
:1000E000A3010008A3010008A301000800F002F822
:1000F00000F03AF80AA090E8000C82448344AAF188
:100100000107DA4501D100F02FF8AFF2090EBAE885
:100110000F0013F0010F18BFFB1A43F0010318473B
:100120002052000040520000103A24BF78C878C125
:10013000FAD8520724BF30C830C144BF04680C60ED
:10014000704700000023002400250026103A28BF35
:1001500078C1FBD8520728BF30C148BF0B60704739
:100160001FB51FBD10B510BD00F036F81146FFF7E2
:10017000F7FF02F0FDFA00F054F803B4FFF7F2FFC6
:1001800003BC00F057F800000948804709480047C1
:10019000FEE7FEE7FEE7FEE7FEE7FEE7FEE7FEE737
:1001A000FEE7FEE704480549054A064B7047000094
:1001B000F91A0008ED00000898040020980A0020B1
:1001C000980600209806002070477047704700008E
:1001D00000487047340400207546FFF7F9FFAE462B
:1001E00005006946534620F00700854618B020B543
:1001F000FFF7D8FFBDE820404FF000064FF00007A2
:100200004FF000084FF0000B21F00701AC46ACE8BE
:10021000C009ACE8C009ACE8C009ACE8C0098D462B
:10022000704710B50446AFF300802046BDE810408B
:10023000FFF7A3BF01491820ABBEFEE7260002006E
:100240007047000070B50425284801F09BFB284842
:1002500001F0B6FB502000F074FE264801F052FB7E
:1002600035E0254800880D2800D035E000240FE057
:10027000214800880D2800D00CE0204602F046FC02
:10028000064601F05DFB1D48008800F05AFE641C24
:100290002D2CEDDD00BF2D240FE0174800880D2820
:1002A00000D00CE0204602F031FC064601F048FB8D
:1002B0001248008800F045FE641E002CEDDC00BFF3
:1002C0000D4800880D2800D006E0681E85B21DB1DB
:1002D000094800880D28C4D000BF074800880D28B1
:1002E00002D102200449088070BD00000000A04136
:1002F000000034420000B44222000020260000200A
:1003000010B51C480088D0B91B4801F059FB1B48A8
:1003100001F0F8FA1A48008800F013FE164801F0C0
:1003200031FB164801F00CFB1548008800F009FE6F
:100330000C201449088001200E49088019E00E485D
:1003400001F020FB0D4801F0FBFA0D48008800F099
:10035000F8FD094801F034FB084801F0D3FA0848D9
:10036000008800F0EEFD0C200649088000200149BD
:10037000088010BD3000002000000C4200000C433B
:10038000240000202200002010B51D480088D8B9A4
:100390001C4801F0B7FA1C4801F012FB1B4800880A
:1003A00000F0CFFD174801F0CBFA174801F0EAFA48
:1003B00016480088503000F0C4FD0220144908801F
:1003C00001200F4908801AE00E4801F0B9FA0E48E2
:1003D00001F0D8FA0D48008800F0B3FD094801F09B
:1003E00091FA094801F0ECFA08480088503000F012
:1003F000A8FD02200649088000200149088010BDA0
:100400002E00002000000C4300000C4224000020BD
:100410002200002010B55EE0022031490880084625
:100420000088801C088040E02E4801F089FA2E48A0
:1004300001F0A8FA2D48008800F083FD2C480088C0
:10044000062800D03BE0274801F05CFA264801F07E
:10045000B7FA2648008800F074FD25480088062871
:1004600000D02CE0234801F06BFA224801F08AFA10
:100470001E48008800F065FD1D480088062800D051
:100480001DE01C4801F03EFA1A4801F099FA17489D
:10049000008800F056FD16480088062800D00EE0BF
:1004A0000F480088401E0E4908800D48008810B98A
:1004B0001148008818B10E4800880628B4D000BF43
:1004C0000D480088012806D009480088062802D176
:1004D0000220074908800648008806289CD010BDE5
:1004E0002C000020000034420000074324000020BC
:1004F000220000200000B442200000202DE9F0413D
:1005000001260324A7E0574801F0FCF9564801F002
:1005100017FA3C2000F015FD544801F051FA5A2515
:100520000EE0534800880F2800D00BE0284602F068
:10053000EDFA074601F026FA062000F002FD6D1CD8
:10054000B42DEEDB00BF14E0B4250EE0484800886F
:100550000F2800D00BE0284602F0D8FA074601F039
:1005600011FA0F2000F0EDFC6D1E962DEEDC00BFA1
:10057000641E1CB13E4800880F28E5D03C48008826
:100580000F2800D06AE0642000F0DBFC354801F061
:10059000B9F9344801F0D4F9354800880F2800D063
:1005A0005CE0502000F0CDFC2E4801F0EBF92D4826
:1005B00001F006FA642000F0C4FC2D4800880F28E2
:1005C00000D04BE00324274801F0BAF9264801F097
:1005D00099F9274800880F2800D03FE03C2000F020
:1005E000B0FC224801F0CEF95A250EE020480088E0
:1005F0000F2800D00BE0284602F088FA074601F0E9
:10060000DFF9062000F09DFC6D1CB42DEEDB00BF71
:1006100014E0B4250EE0164800880F2800D00BE047
:10062000284602F073FA074601F0CAF90F2000F0DD
:1006300088FC6D1E962DEEDC00BF641E1CB10C48BC
:1006400000880F28E5D00A4800880F2802D1022030
:10065000074908800026002E7FF455AF00BFBDE893
:10066000F08100000000B4420000A0410000DC4224
:100670002200002010B55EE00220314908800846C3
:100680000088801C088040E02E4801F03BF92E488D
:1006900001F096F92D48008800F053FC2C480088A2
:1006A000072800D03BE0274801F04AF9264801F02E
:1006B00069F92648008800F044FC2548008807288E
:1006C00000D02CE0234801F01DF9224801F078F910
:1006D0001E48008800F035FC1D480088072800D01F
:1006E0001DE01C4801F02CF91A4801F04BF917489D
:1006F000008800F026FC16480088072800D00EE08D
:100700000F480088401E0E4908800D48008810B927
:100710001148008818B10E4800880728B4D000BFDF
:100720000D480088012806D009480088072802D112
:100730000220074908800648008807289CD010BD81
:100740002C00002000003442000007432400002059
:10075000220000200000B4422000002070B50325D4
:100760005BE01E2422E0204602F0E8F9064601F094
:10077000C9F8204602F0E2F9064601F0E1F8204609
:1007800002F0DCF9064601F0FDF8204602F0D6F949
:10079000064601F015F93C48008800F0D2FB3B48C2
:1007A0000088082800D003E0601CC4B2962CDADB75
:1007B00000BF36480088082800D033E0962422E0A5
:1007C000204602F0BBF9064601F09CF8204602F0F4
:1007D000B5F9064601F0B4F8204602F0AFF9064636
:1007E00001F0D0F8204602F0A9F9064601F0E8F839
:1007F0002548008800F0A5FB24480088082800D080
:1008000003E0601EC4B21E2CDADC00BF1F48008863
:10081000082800D006E0681E85B21DB11B4800887C
:1008200008289ED000BF1E2422E0204602F086F950
:10083000064601F067F8204602F080F9064601F00E
:100840007FF8204602F07AF9064601F09BF8204630
:1008500002F074F9064601F0B3F80B48008800F086
:1008600070FB0A480088082800D003E0601CC4B26E
:100870005A2CDADB00BF05480088082802D1022084
:100880000249088070BD00002600002022000020E0
:1008900070B503253C2000F054FB37E01E2410E027
:1008A000204602F04BF9064601F044FF1C48008840
:1008B00000F047FB1B480088092800D003E0601CBB
:1008C000C4B2962CECDB00BF16480088092800D083
:1008D00021E0962410E0204602F030F9064601F0AF
:1008E00029FF0F48008800F02CFB0E4800880928DB
:1008F00000D003E0601EC4B21E2CECDC00BF09482F
:100900000088092800D006E0681E85B21DB10548A0
:1009100000880928C2D000BF3C2000F012FB70BD47
:10092000260000202200002010B597E002204E494A
:1009300008807CE04D4801F003F84C4801F022F8B3
:100940004B48008800F0FDFA4A480088042800D08F
:1009500078E0494800F0D6FF474801F031F84448B4
:10096000008800F0EEFA43480088042800D069E0CF
:10097000424800F0E5FF414801F004F83C48008897
:1009800000F0DFFA3B480088042800D05AE03B48DA
:1009900000F0B8FF394801F013F83548008800F03E
:1009A000D0FA34480088042800D04BE02F4800F0EB
:1009B000A9FF2E4801F004F82D48008800F0C1FA84
:1009C0002C480088042800D03CE02B4800F0B8FFF9
:1009D000294800F0D7FF2648008800F0B2FA2548E1
:1009E0000088042800D02DE0244800F08BFF234825
:1009F00000F0E6FF1E48008800F0A3FA1D480088BA
:100A0000042800D01EE01D4800F09AFF1B4800F0AB
:100A1000B9FF1748008800F094FA164800880428A7
:100A200000D00FE010480088401E0F4908800E4893
:100A3000008810B91248008820B10E4800880428A8
:100A40003FF478AF00BF0E480088012806D009485F
:100A50000088042802D10220064908800548008841
:100A600004283FF463AF10BD2C0000200000344286
:100A70002400002022000020000007430000B442B0
:100A80002000002010B597E002204E4908807CE04D
:100A90004D4800F055FF4C4800F074FF4B4800886B
:100AA00000F04FFA4A480088052800D078E049480D
:100AB00000F028FF474800F083FF4448008800F01A
:100AC00040FA43480088052800D069E0424800F019
:100AD00037FF414800F056FF3C48008800F031FAEB
:100AE0003B480088052800D05AE03B4800F00AFF48
:100AF000394800F065FF3548008800F022FA344894
:100B00000088052800D04BE02F4800F0FBFE2E485F
:100B100000F056FF2D48008800F013FA2C4800889A
:100B2000052800D03CE02B4800F00AFF294800F0DF
:100B300029FF2648008800F004FA25480088052887
:100B400000D02DE0244800F0DDFE234800F038FFFF
:100B50001E48008800F0F5F91D480088052800D0DF
:100B60001EE01D4800F0ECFE1B4800F00BFF17488C
:100B7000008800F0E6F916480088052800D00FE04C
:100B800010480088401E0F4908800E48008810B9A0
:100B90001248008820B10E48008805283FF478AF3D
:100BA00000BF0E480088012806D0094800880528A3
:100BB00002D10220064908800548008805283FF434
:100BC00063AF10BD2C00002000000743240000206C
:100BD00022000020000034420000B4422000002027
:100BE00010B50B4800F08EFE094800F0A9FE502019
:100BF00000F0A7F9064800F0C5FE054800F0E0FE49
:100C000004480078012802D109200349088010BD5A
:100C10000000A0412A0000202200002010B5084852
:100C200000F070FE064800F08BFE502000F089F9BD
:100C3000044800F0A7FE034800F0C2FE10BD00000B
:100C40000000A0410000204310B50B4800F05AFE00
:100C5000094800F075FE502000F073F9074800F0D5
:100C600091FE064800F0ACFE05480078012802D14C
:100C700009200449088010BD0000B4420000A041D2
:100C80002A0000202200002070B53C4800F07AFEC7
:100C90003A4800F095FE502000F053F95A2414E031
:100CA000204601F033FF054600F02CFE204601F0FF
:100CB0002DFF054600F044FE314800880E2800D084
:100CC00005E00F2000F03DF9641E0A2CE8DC00BFAF
:100CD0000A2414E0204601F019FF054600F012FE38
:100CE000204601F013FF054600F02AFE2448008844
:100CF0000E2800D005E00F2000F023F9641C5A2CC8
:100D0000E8DB00BF5A2414E0204601F0FFFE054650
:100D100000F038FE204601F0F9FE054600F050FED6
:100D2000174800880E2800D005E00F2000F009F9D0
:100D3000641CAA2CE8DB00BFAA2414E0204601F0C2
:100D4000E5FE054600F01EFE204601F0DFFE0546EA
:100D500000F036FE0A4800880E2800D005E00F207B
:100D600000F0EFF8641E5A2CE8DC00BF044800884D
:100D70000E2802D10F200249088070BD0000B44245
:100D80002200002010B50B4800F0BCFD094800F01F
:100D9000D7FD502000F0D5F8064800F0F3FD0548D7
:100DA00000F00EFE04480078012802D10920034912
:100DB000088010BD0000B4422A000020220000205C
:100DC00010B50B4800F0DEFD094800F0F9FD502099
:100DD00000F0B7F8064800F095FD054800F0B0FDBA
:100DE00004480078012802D109200349088010BD79
:100DF0000000B4422A0000202200002000B587B085
:100E00000121042000F002FD0121880300F0FEFC16
:100E10000121082000F0FAFC0121880400F0E6FC22
:100E200018208DF81B004FF40070ADF81800032057
:100E30008DF81A0006A93D4800F02EF948208DF8DB
:100E40001B004FF48060ADF8180003208DF81A00E5
:100E500006A9364800F020F918208DF81B004FF441
:100E60008060ADF8180003208DF81A0006A93048FC
:100E700000F012F948208DF81B004FF40060ADF827
:100E8000180003208DF81A0006A9294800F004F97B
:100E90004FF4165002900020ADF814000C20ADF86D
:100EA00012000020ADF81000ADF80E00ADF80C00F7
:100EB00002A9204801F0CAFB02A91F4801F0C6FBA5
:100EC000012240F225511B4801F09BFB012240F218
:100ED0002551194801F095FB4FF4A06000F0AAF9E4
:100EE00025208DF8040001208DF807008DF80500FD
:100EF0008DF8060001A800F065F927208DF80400A0
:100F000001208DF8070002208DF8050001208DF8E2
:100F1000060001A800F056F90121064801F03BFB4C
:100F20000121054801F037FB07B000BD0008014072
:100F3000000C0140003801400048004000BFFEE7BF
:100F4000704700B5034603E04FF47A7000F005F8EF
:100F5000181EA3F10103F7D100BD00EBC001C900C9
:100F60004FF0E0225161002191610521116100BF24
:100F70004FF0E021096901F480310029F8D0042103
:100F80004FF0E0221161704708B53B48008860B916
:100F900000F05AF939484023802200210090084689
:100FA00000F076FA00F0F2FA64E033480088012895
:100FB0000CD100F049F932484023802200210090F2
:100FC000084600F065FA00F0E1FA53E02A4800888C
:100FD00002280CD100F038F92A4840238022002151
:100FE0000090084600F054FA00F0D0FA42E022489F
:100FF000008803280CD100F027F9234840238022E1
:1010000000210090084600F043FA00F0BFFA31E0FA
:101010001948008804280CD100F016F91B48402319
:10102000802200210090084600F032FA00F0AEFA6B
:1010300020E01148008805280CD100F005F914487B
:101040004023802200210090084600F021FA00F0A1
:101050009DFA0FE00848008806280BD100F0F4F84C
:101060000C484023802200210090084600F010FA2E
:1010700000F08CFA08BD000028000020404700085E
:10108000404B0008403F000840430008404F000824
:10109000403B0008403700082DE9F041024600259A
:1010A0000026002000230024002791F803C00CF044
:1010B0000F0591F803C00CF0100CBCF1000F03D029
:1010C00091F802C04CEA050591F800C0BCF1000F90
:1010D00031D0146800202BE04FF0010C0CFA00F323
:1010E000B1F800C00CEA03069E4220D183004FF005
:1010F0000F0C0CFA03F7BC4305FA03FC4CEA04049A
:1011000091F803C0BCF1280F06D14FF0010C0CFA86
:1011100000FCC2F814C00AE091F803C0BCF1480F0B
:1011200005D14FF0010C0CFA00FCC2F810C0401CB5
:101130000828D1D31460B1F800C0BCF1FF0F34DD32
:10114000546800202EE000F1080C4FF0010808FA66
:101150000CF3B1F800C00CEA03069E4221D18300D3
:101160004FF00F0C0CFA03F7BC4305FA03FC4CEAF2
:10117000040491F803C0BCF1280F05D100F1080C5C
:1011800008FA0CF8C2F8148091F803C0BCF1480FBB
:1011900007D100F1080C4FF0010808FA0CF8C2F86A
:1011A0001080401C0828CED35460BDE8F0810AB1FD
:1011B000016100E04161704700BFFEE700BFFEE74C
:1011C0007047000070B5002100230F22C47804B3DB
:1011D000154C246804F4E064C4F5E064210AC1F10C
:1011E0000403CA40447804FA03F18478144021438C
:1011F00009010E4C0678A155047804F01F0501245E
:10120000AC4005786D11AD0005F1E025C5F8004151
:1012100009E0047804F01F050124AC40044D067871
:10122000761145F8264070BD0CED00E000E400E0CA
:1012300080E100E002490143024A1160704700006A
:101240000000FA050CED00E000200CE0002106E0B3
:101250000022064B03EBC0135A544A1CD1B280291A
:10126000F6DB421CD0B20828F0DB704734000020C7
:101270002DE9F04304460D4616461F46284638E041
:10128000224631E0002A2DDB7F2A2BDC002829DBD7
:101290003F2827DC4FEAE07C00EB5C7C4FEAEC0C5B
:1012A000DFF8588008EBCC1C1CF802C003464FEA5C
:1012B000E07800EB58784FEAE808A0EBC8094FF057
:1012C000010808FA09F82CEA080C01464FEAE07810
:1012D00000EB58784FEAE808DFF8209009EBC818CF
:1012E00008F802C0511C0AB2A1199142CADC411C83
:1012F00008B2E9198142C3DCBDE8F0833400002064
:1013000038B5002406E0002500E06D1CB5F57A7FB5
:10131000FBD3641CB4F57A7FF5D30121082000F0DB
:1013200075FA14208DF8030003208DF802004FF4A5
:101330008070ADF8000069460848FFF7ADFE4FF435
:101340000070ADF8000069460448FFF7A5FE0120D3
:1013500000F030F9012000F039F938BD000C0140EF
:1013600070B50546002411E080212141294009B1D2
:10137000012100E00021084600F028F9012000F0DA
:1013800019F9002000F016F9601CC4B2082CEBDB40
:10139000012000F00FF9002000F00CF970BD10B52D
:1013A000012000F013F9012000F004F9002000F002
:1013B0000DF9002000F0FEF810BD10B5002000F07F
:1013C00005F9012000F0F6F8012000F0FFF810BD4B
:1013D00010B5FFF795FFAE2000F004F9D52000F01E
:1013E00001F9802000F0FEF8A82000F0FBF83F2073
:1013F00000F0F8F8D32000F0F5F8002000F0F2F843
:10140000402000F0EFF8A12000F0ECF8C82000F038
:10141000E9F8DA2000F0E6F8122000F0E3F8812085
:1014200000F0E0F8CF2000F0DDF8D92000F0DAF885
:10143000F12000F0D7F8DB2000F0D4F8302000F0E5
:10144000D1F8A42000F0CEF8A62000F0CBF88D2033
:1014500000F0C8F8142000F0C5F8AF2000F0C2F882
:10146000FFF7F2FE00F092F810BD70B505460C468D
:10147000A01CC4B245F0B00000F0B4F8102141EA5D
:10148000141000F0AFF804F00F0000F0ABF870BDDE
:101490002DE9FF4F80460E469146DDF834B0002519
:1014A00000244A4631464046039BFFF7E1FE00BF59
:1014B0005EE0002558E008EB0500002852DB08EB51
:1014C00005007F284EDC3046F11706EB5171C9103C
:1014D0000FB2F11706EB5171C910A6EBC10A002E2D
:1014E00005DA781E07B20AF108000FFA80FA3819F7
:1014F000002817DB3819072814DC3819224901EBBA
:10150000C01008EB0501405C04FB09511BF80110F9
:1015100001FA0AF1084339191B4A02EBC11108EB21
:10152000050288543819401C00281BDB3819401C60
:10153000072817DC3819401C134901EBC01008EBD1
:101540000501405C04FB09511BF80110CAF10802B7
:10155000114108433919491C0B4A02EBC11108EB30
:1015600005028854681CC5B24D45A4DB601CC4B29A
:101570000399481EC11700EB5171012202EBE101F2
:10158000A14296DCBDE8FF8F3400002010B5002496
:101590000BE000212046FFF768FF054901EBC4106E
:1015A000802100F02FF8601CC4B2082CF1DB10BDC4
:1015B0003400002010B5044622464FF480710248E2
:1015C000FFF7F5FD10BD0000000C014010B504460A
:1015D00022464FF400710248FFF7E9FD10BD0000FC
:1015E000000C014010B50446FFF7D9FE7820FFF744
:1015F000B7FE0020FFF7B4FE2046FFF7B1FEFFF76D
:10160000DCFE10BD70B505460E46FFF7C8FE78201B
:10161000FFF7A6FE4020FFF7A3FE002404E0285DAC
:10162000FFF79EFE601CC4B2B442F8DBFFF7C5FEB4
:1016300070BD000000B589B00121084600F0D6F861
:101640000121022000F0D2F80121042000F0DEF890
:101650000121082000F0DAF818208DF823004F202F
:10166000ADF8200003208DF8220008A93C48FFF7C0
:1016700013FD18208DF823000320ADF820008DF80D
:10168000220008A93748FFF707FD4FF0804000F01F
:1016900010FB354800F00DFB0020ADF81A00ADF846
:1016A000160044F61F60ADF818004720ADF814008E
:1016B00000208DF81C0005A94FF0804000F040FC90
:1016C00005A9294800F03CFC1D208DF810000120E0
:1016D0008DF8130000208DF811008DF8120004A879
:1016E000FFF770FD012211461F4800F0D9FA684645
:1016F00000F012FC6020ADF800000020ADF80800FA
:101700000120ADF802000020ADF8060069464FF058
:10171000804000F0D5FA69464FF0804000F01CFB95
:1017200069464FF0804000F069FB69464FF0804009
:1017300000F0B4FB69460C4800F0C2FA69460A485A
:1017400000F05CFB6946084800F0A8FB012188070F
:1017500000F089FA0121044800F085FA09B000BDC3
:1017600000080140000C01400004004010B5044690
:101770002146024800F0DEFB10BD000000040040DE
:1017800010B504462146024800F0D6FB10BD00000B
:101790000004004010B5044621464FF0804000F0A0
:1017A000C5FB10BD10B5044621464FF0804000F047
:1017B000BFFB10BD10B5044621464FF0804000F03D
:1017C000B9FB10BD10B5044621464FF0804000F033
:1017D000B3FB10BD10B504462146024800F0A6FB3D
:1017E00010BD0000000400407047000029B1064A07
:1017F000D2690243044BDA6104E0034AD2698243AE
:10180000014BDA61704700000010024029B1064A1E
:1018100092690243044B9A6104E0034A926982434D
:10182000014B9A61704700000010024030B5002162
:101830000022002400232D4D6D6805F00C0121B11C
:10184000042905D0082923D105E0294D056022E0AF
:10185000274D05601FE0254D6D6805F47012234D7E
:101860006D6805F48034022505EB92421CB9214DC8
:10187000554305600BE01D4D6D6805F400351DB145
:101880001C4D5543056002E0194D5543056002E0CB
:10189000174D056000BF00BF144D6D6805F0F001E5
:1018A0000909154D6B5C0568DD4045600F4D6D689D
:1018B00005F4E061090A104D6B5C4568DD40856008
:1018C0000A4D6D6805F46051C90A0B4D6B5C4568A3
:1018D000DD40C560054D6D6805F44041890B074D3D
:1018E0006B5CC568B5FBF3F5056130BD00100240C7
:1018F00000127A0000093D000000002010000020C6
:10190000704700002DE9F04104460A49204601F0E5
:101910001BF88046084901F025F90746074900F001
:10192000B1FF064601F0D2F885B22846FFF732FF34
:10193000BDE8F081000034430000FA440000FA439F
:101940002DE9F04704460C49204601F0D7F98146BD
:10195000094900F0F9FF8046084901F003F90746FC
:10196000074900F08FFF064601F0B0F885B228461F
:10197000FFF718FFBDE8F087000034430000FA4489
:101980000000FA432DE9F04104460A49204600F0E0
:10199000DBFF8046084901F0E5F80746074900F0FB
:1019A00071FF064601F092F885B22846FFF702FF64
:1019B000BDE8F081000034430000FA440000FA431F
:1019C0002DE9F04704460C49204601F097F981467D
:1019D000094900F0B9FF8046084901F0C3F80746FD
:1019E000074900F04FFF064601F070F885B228461F
:1019F000FFF7E8FEBDE8F087000034430000FA443A
:101A00000000FA4310B5FFF715FE10BD10B500F049
:101A100001F810BD0CB5002001900090334800681B
:101A200040F480303149086000BF3048006800F45D
:101A3000003000900198401C0190009818B901985E
:101A4000B0F5A06FF1D12948006800F4003010B162
:101A50000120009001E0002000900098012843D16F
:101A60002348006840F010002149086008460068DB
:101A700020F0030008600846006840F0020008609B
:101A80001A48406819494860084640684860084656
:101A9000406840F4806048600846406820F47C104C
:101AA00048600846406840F4E8104860084600680E
:101AB00040F08070086000BF0C48006800F00070C3
:101AC0000028F9D00948406820F003000749486021
:101AD0000846406840F00200486000BF0348406884
:101AE00000F00C000828F9D10CBD000000100240E5
:101AF000002002407047000010B51348006840F015
:101B000001001149086008464068104908400E4924
:101B10004860084600680E4908400B4908600846BE
:101B2000006820F4802008600846406820F4FE0029
:101B300048604FF41F008860FFF768FF4FF00060B7
:101B40000449086010BD0000001002400000FFF8CA
:101B5000FFFFF6FE08ED00E010B501213A4800F065
:101B60008EF801286ED13948008801280BD13848F9
:101B7000008840B944F62060FFF7F8FD44F6206085
:101B8000FFF7FEFD5AE03148008801284DD130486A
:101B90000088012849D12F480088012816D12E48F5
:101BA000008864302C49088008460088FFF7DEFD75
:101BB00029480088FFF7E4FD2748008844F62061A3
:101BC00088423BD102202349088037E02148008821
:101BD000022813D12048008864381F49088008462D
:101BE0000088FFF7C3FD1C480088FFF7C9FD1A48AD
:101BF000008818BB0320174908801FE0154800889B
:101C000003281BD11548008800F57A701349088015
:101C10000846008844F6206188420FD101200D4912
:101C2000088000200D49088008E00848008828B98D
:101C30000020FFF79BFD0020FFF7A2FD01210248D5
:101C400000F00EF810BD0000000400401C00002051
:101C50001E00002018000020160000201A0000209E
:101C6000CA430282704721B1028842F00102028019
:101C700004E002884FF6FE731A400280704730B5C8
:101C80000246002000230024158A05EA01039589F5
:101C900005EA010413B10CB1012000E0002030BDC1
:101CA0001AB183890B43838102E083898B4383814B
:101CB000704701894FF6F8721140018170470000AA
:101CC00070B5002400220023058C4FF6FE763540C7
:101CD0000584028C8388048B4FF68F752C40B51ECB
:101CE0002C400D882C43751E2A400D892A434D88AF
:101CF0002A43144DA8420BD0134DA84208D0134DCF
:101D0000A84205D0124DA84202D0124DA84213D1CC
:101D10004FF6F7752A404D892A434FF6FB752A4046
:101D20008D882A434FF6FF652B404FF6FF552B4019
:101D30008D892B43CD892B4383800483CD88858671
:101D4000028470BD002C014000340140004001407D
:101D5000004401400048014070B5002400220023E7
:101D6000058C4FF6EF7635400584028C8388048B12
:101D700048F6FF752C404FF6FF452C400D884FF676
:101D8000FF7606EA05252C434FF6DF752A400D89BC
:101D900006EA05152A434D8806EA05152A43154D1E
:101DA000A84202D0144DA8421DD14FF67F752A409B
:101DB0004D894FF6FF7606EA05152A434FF6BF75A3
:101DC0002A408D8806EA05152A434FF6FF352B4039
:101DD0004FF2FF752B408D8906EA85052B43CD898F
:101DE00006EA85052B4383800483CD88058702841A
:101DF00070BD0000002C01400034014070B500248B
:101E000000220023058C4FF6FF6635400584028CC6
:101E10008388848B4FF68F752C404FF6FC752C40D1
:101E20000D882C434FF6FF552A400D894FF6FF765B
:101E300006EA05252A434D8806EA05252A43154D5D
:101E4000A84202D0144DA8421DD14FF2FF752A407E
:101E50004D894FF6FF7606EA05252A434FF6FF35F2
:101E60002A408D8806EA05252A434EF6FF752B4049
:101E70004DF6FF752B408D8906EA05152B43CD895C
:101E800006EA05152B4383808483CD8885870284E9
:101E900070BD0000002C01400034014070B50022EC
:101EA00000230024058C4EF6FF7635400584038C14
:101EB0008488828B48F6FF752A404FF6FF452A40FA
:101EC0000D884FF6FF7606EA05252A434DF6FF7585
:101ED0002B400D8906EA05352B434D8806EA05356A
:101EE0002B430B4DA84202D00A4DA84208D14BF615
:101EF000FF752C408D894FF6FF7606EA85152C4339
:101F000084808283CD88A0F84050038470BD000097
:101F1000002C01400034014000210180418081807B
:101F2000C180018141818181C18170478186704773
:101F30000187704781877047A0F840107047000004
:101F4000002202881D4B98420ED01D4B98420BD0A8
:101F5000B0F1804F08D01B4B984205D01A4B9842E5
:101F600002D01A4B984204D14FF68F731A404B8817
:101F70001A43174B984207D0164B984204D04FF69D
:101F8000FF431A40CB881A4302808B8883850B88D5
:101F900003850A4B98420BD0094B984208D00E4B50
:101FA000984205D00D4B984202D00D4B984201D17A
:101FB0000B7A03860123838270470000002C0140C6
:101FC000003401400004004000080040000C0040C4
:101FD0000010004000140040004001400044014057
:101FE0000048014010B540F22551A84800F0DFFA42
:101FF000012872D10020A6490880A44800F092FB75
:10200000292808D10020A3490880FEF7BDFF002041
:10201000A149088033E19D4800F084FB302808D1B5
:1020200001209C490880FEF7AFFF01209A490880F3
:1020300025E1964800F076FB312808D10520954926
:102040000880FEF7A1FF02209349088017E18F481E
:1020500000F068FB322808D101208E490880FEF785
:1020600093FF03208C49088009E1884800F05AFB5F
:10207000332808D1022087490880FEF785FF042015
:1020800085490880FBE0814800F04CFB342808D1EA
:10209000022080490880FEF777FF05207E490880EE
:1020A000EDE07A4800F03EFB352808D1022079495E
:1020B0000880FEF769FF062077490880DFE0734853
:1020C00000F030FB362809D1022072490880FEF763
:1020D0005BFF072070490880D1E0D5E06B4800F035
:1020E00021FB372808D104206A490880FEF74CFFFD
:1020F000082069490880C2E0644800F013FB3828D2
:102100001BD166480088782804D1032061490880E3
:10211000FEF73AFF61480088642805DD5F480088C3
:1021200014385E490880AAE002205A490880FEF768
:102130002BFFC82059490880A1E0544800F0F2FA6A
:1021400039281BD156480088042804D1032051495E
:102150000880FEF719FF52480088032805DD504823
:102160000088401E4E49088089E0042049490880C3
:10217000FEF70AFF09204A49088080E0434800F042
:10218000D1FA402812D14748007818B901204549B2
:10219000087002E000204349087001203D49088092
:1021A000FEF7F2FE09203C49088068E0374800F05D
:1021B000B9FA412808D1022036490880FEF7E4FE2A
:1021C0000A20354908805AE0304800F0ABFA42282E
:1021D00008D102202F490880FEF7D6FE0B202E4999
:1021E00008804CE0294800F09DFA432808D10620D9
:1021F00028490880FEF7C8FE0D20274908803EE0E8
:10220000224800F08FFA442803D101202649088093
:1022100035E01E4800F086FA452803D10020224907
:1022200008802CE0194800F07DFA462803D10120EF
:102230001E49088023E0154800F074FA472803D1AE
:1022400000201A4908801AE0104800F06BFA48286C
:1022500008D106200F490880FEF796FE0E200E4991
:1022600008800CE0094800F05DFA492807D10620F3
:1022700008490880FEF788FE0F200749088040F2D1
:102280002551024800F078F910BD000000380140E7
:102290002000002028000020220000202400002030
:1022A000260000202A0000201C0000201E00002024
:1022B00010B540F22551A74800F079F9012871D1F5
:1022C000A5490880A34800F02DFA292808D100204C
:1022D000A2490880FEF758FE0020A149088033E19A
:1022E0009C4800F01FFA302808D101209B49088043
:1022F000FEF74AFE01209A49088025E1954800F042
:1023000011FA312808D1052094490880FEF73CFED7
:1023100002209349088017E18E4800F003FA322822
:1023200008D101208D490880FEF72EFE03208C493C
:10233000088009E1874800F0F5F9332808D1022028
:1023400086490880FEF720FE042085490880FBE0CE
:10235000804800F0E7F9342808D102207F4908803E
:10236000FEF712FE05207E490880EDE0794800F076
:10237000D9F9352808D1022078490880FEF704FEF3
:10238000062077490880DFE0724800F0CBF9362854
:1023900009D1022071490880FEF7F6FD0720704937
:1023A0000880D1E0D5E06B4800F0BCF9372808D1AF
:1023B00004206A490880FEF7E7FD08206849088084
:1023C000C2E0644800F0AEF938281BD165480088A7
:1023D000782804D1032061490880FEF7D5FD6148C3
:1023E0000088642805DD5F48008814385D4908804E
:1023F000AAE0022059490880FEF7C6FDC8205949C5
:102400000880A1E0534800F08DF939281BD15648C7
:102410000088042804D1032050490880FEF7B4FD49
:1024200051480088032805DD4F480088401E4E496A
:10243000088089E0042049490880FEF7A5FD0920AD
:102440004949088080E0434800F06CF9402812D1E7
:102450004648007818B901204449087002E000207D
:102460004249087001203D490880FEF78DFD092092
:102470003B49088068E0374800F054F9412808D10A
:10248000022036490880FEF77FFD0A203449088083
:102490005AE0304800F046F9422808D102202F497E
:1024A0000880FEF771FD0B202D4908804CE029487B
:1024B00000F038F9432808D1062028490880FEF7A3
:1024C00063FD0D20264908803EE0224800F02AF9ED
:1024D000442803D101202649088035E01D4800F03A
:1024E00021F9452803D10020214908802CE0194812
:1024F00000F018F9462803D101201E49088023E086
:10250000144800F00FF9472803D10020194908802A
:102510001AE0104800F006F9482808D106200F49B3
:102520000880FEF731FD0E200D4908800CE00948B7
:1025300000F0F8F8492807D1062008490880FEF77E
:1025400023FD0F200649088040F22551014800F084
:1025500013F810BD00480040200000202800002093
:102560002200002024000020260000202A00002055
:102570001C0000201E00002010B50022002340F6A1
:102580006A14A14200D100BF0A1201249440A3B2F0
:10259000DC43048010BD21B1828942F40052828163
:1025A00004E082894DF6FF731A408281704770B54E
:1025B0000246002400230025002040F66A16B1429E
:1025C00000D100BFC1F3421501F01F03012606FA36
:1025D00003F3012D02D19689334006E0022D02D18A
:1025E000168A334001E0968A33400C12012606FA1F
:1025F00004F41688344013B10CB1012000E000202F
:1026000070BDF0B50346002400260025002040F6EA
:102610006A17B94200D100BF1846C1F3421401F055
:102620001F06012707FA06F5012C01D10C3004E042
:10263000022C01D1103000E014301AB107682F438A
:10264000076002E00768AF430760F0BD2DE9F0477F
:1026500086B005460E460024A24600BFA1460027CC
:10266000B08900B100BF2F462C8A4CF6FF700440A1
:10267000F08804432C82AC894EF6F3100440B088F5
:1026800031890843718908430443AC81AC8A4FF611
:10269000FF400440B0890443AC8201A8FFF7C6F8AC
:1026A0001F48874202D1DDF810A001E0DDF80CA040
:1026B000A88900F4004040B10AEBCA0000EB0A1000
:1026C00031684900B0FBF1F807E00AEBCA0000EB03
:1026D0000A1031688900B0FBF1F86420B8FBF0F013
:1026E00004012009642101FB1089A88900F400403D
:1026F00040B1322000EBC900B0FBF1F000F0070060
:10270000044308E0322000EB09106421B0FBF1F033
:1027100000F00F0004432C8106B0BDE8F0870000F4
:102720000038014001468888C0F30800704700BFA8
:10273000FEE700002DE9F04104460A49204600F07A
:1027400003F98046084900F00DFA0746074900F0F2
:1027500099F8064600F0BAF985B22846FFF73AF82C
:10276000BDE8F081000034430000FA440000FA4361
:1027700008B5FFF747F9FEF72BFEFEF73FFB3E4893
:1027800040238022002100900846FEF781FEFEF7DC
:10279000FDFE70E03948008828B9FEF73FFA384856
:1027A000FFF7C8FF67E035480088012802D1FEF72F
:1027B0004BFA60E031480088022802D1FEF7E2FAC5
:1027C00059E02E480088032802D1FEF709FA52E0AA
:1027D0002A480088042802D1FEF7A6F84BE02748D3
:1027E0000088052802D1FEF74DF944E0234800880F
:1027F000062802D1FDF70EFE3DE02048008807289C
:1028000002D1FDF737FF36E01C480088082802D1C6
:10281000FDF7A4FF2FE019480088092802D1FEF730
:1028200037F828E0154800880A2802D1FDF7ACFDEA
:1028300021E0124800880B2802D1FDF761FD1AE063
:102840000E4800880C2802D1FEF7BAFA13E00B48B4
:1028500000880D2802D1FDF7F5FC0CE00748008840
:102860000E2802D1FEF710FA05E0044800880F2870
:1028700001D1FDF743FE8DE740470008220000200C
:102880000000B44290EA010F48BF81F0004100F11E
:102890004682421A3CBF801A89184FEAD0524FF044
:1028A0007F4C1CEA410FA2EBD15318BF9CEA026F88
:1028B00000F03B804FF0004C4CEA00204CEA012134
:1028C00021FA03FC10EB0C0C1ED202F1FF325FEA7E
:1028D0001C2040EBC25038BF70471CF07F0F4FEAFE
:1028E000400C18BFBCF17F4F38BF7047C3F12003C5
:1028F000994008BF20F00100BCF17F4F38BF7047FE
:10290000A0F1C04000F0F5B94FEA3C00000A40EBEE
:10291000C25028BF1CF0FF0F4FEA400CE6D018BF92
:10292000BCF17F4F38BF7047EAE79CEA026F05D0E1
:1029300010EA5C0F08BF00F00040704710B500F0CF
:1029400092F900BF64FBBE3E4FF47F0C1CEAD0122C
:102950001EBF1CEAD11392EA0C0F93EA0C0F00F091
:10296000858090EA010F48BF42F4807240F4000C69
:1029700041F400002CF07F4120F07F4000B58142FF
:10298000A2EB03020FF2081CACEB504EC0F10000AA
:102990009EF800E04FEA4E0E00FB0EFC38BF4900E7
:1029A0004FEA2C1C02F5FA020CFB0EF34FEACE1E86
:1029B0004FEA112C4FEAC1210EEB635E42EB22423B
:1029C0000EFB0CFC4FEA1C5300FB03114FEA112CC9
:1029D0004FEA01310EFB0CFC4FEADC4C00FB0C1102
:1029E000C14228BF09184CEB03335DF804EB10EB30
:1029F000410143EBC250B2F57C0F38BF704729D577
:102A000012F0F00F1CBF00F1C04000F00040704712
:102A1000008182838485868788898B8C8D8E8F91B7
:102A20009293959697999A9C9D9FA0A2A3A5A7A8DB
:102A3000AAACAEB0B2B3B5B7B9BCBEC0C2C5C7C907
:102A4000CCCED1D4D7D9DCDFE2E6E9ECF0F3F7FA6B
:102A5000FE0000004FEA400C0CF1807CBCF17E4F80
:102A600028BF7047B0F1C04000F043B990EA010FB1
:102A70000CEAD11348BF42F48072624538BF634507
:102A800007D213F47F0F16D080EA010000F0004057
:102A9000704710B500F0E7F8097EFC3E00F005B87D
:102AA00080EA010000F00040704780EA010000F079
:102AB000004000F01EB912F47F0F04BF02487047B7
:102AC00080EA010000F015B90000C07FC10DD1F10E
:102AD0009E0206DB4FEA002343F0004323FA02F094
:102AE0007047004207D54FEA4001B1F1FE4F02D2D4
:102AF0004FF00000704710B500F0B5F849922480FF
:102B0000002070476FEA20007047000010F000417D
:102B100048BF4042B0FA80F310FA03F2C3F19D03BC
:102B20000BD051EAC35101EB1220530638BF704756
:102B300000F1010008BF20F001007047B0FA80F3F7
:102B400010FA03F2C3F19D030AD0D90501EB12205C
:102B5000530638BF704700F1010008BF20F00100A4
:102B6000704700004FF47F0C1CEAD0121EBF1CEA15
:102B7000D11392EA0C0F93EA0C0F00F0478090EA11
:102B8000010F48BF42F480724FF0004C4CEA002025
:102B90004CEA012102EB0302A0FB0113A2F50002A3
:102BA000002918BF43F001035B0028BF4FEA33033D
:102BB00042EB22425FEA132C4CEBC2502EBFBCEB1F
:102BC000436FB2F57C0F70474FEA036CBCF1004FC6
:102BD00008BF20F00100B2F57C0F38BF70470BD55D
:102BE00082F0FF0212F5803FC8BF704700F1C0407D
:102BF000D8BF00F00040704700F5000C5FEA4C0CB5
:102C000048BF7047B0F1C04000F073B890EA010FC0
:102C10000CEAD11348BF42F48072624538BF634565
:102C200004D280EA010000F00040704710B500F0C7
:102C30001AF800BF8900013E00F007B800F009B89B
:102C40005FEA410C5FEA1C6C08D080EA010000F0EA
:102C500050B85FEA400C5FEA1C6CF6D14FF00040C0
:102C6000A0F5800070470EF1020E2EF0030E5EF804
:102C7000044B244204D44FEA4102B2F17F4F11D8F1
:102C80004FEA4003B3F17F4F0CD80ED14FEAD07C0E
:102C9000B2F17F4F0CEB4C0C0CF1020C08BF4CEB6B
:102CA000D17C04E04FF0080C01E04FEAD17C0CEB42
:102CB0004C0324FA03F404F00704B4F1040C06D224
:102CC0000EEB840CBDE810404CF0010C6047DFE8CF
:102CD0000CF0070802024FF00040A0F5800010BD84
:102CE0000846420018BFD2F1807288BF00F0004051
:102CF00010BDFF2141EAD050C005704780F0004070
:102D000090EA010F7FF5C5AD81F0004100F007B8F2
:102D100090EA010F48BF81F000413FF5BAAD421A79
:102D200004D882F00042A0EB020011444FEAD052D6
:102D30004FF07F4C1CEA410FA2EBD15318BF9CEA25
:102D4000026F4AD04FF0004C4CEA00204CEA0121BF
:102D500021FA03FCB0EB0C0C0FD412F0FE0F36D0AE
:102D60005FEA4C001DD5001240EBC25038BF7047DF
:102D70001CF03F0F18BF70470BE0A2F101025FEAA1
:102D80001C2040EBC25038BF70471CF07F0F18BFAB
:102D90007047C3F12003994014BF401E20F001008A
:102DA000704780084FEA122308BF7047B0FA80FCD2
:102DB000A2EB0C02CCF1280C60FA0CF093EA122F73
:102DC00004BF00EBC25070474FEAC3707047130A4C
:102DD0005FEADC1008BF7047F6E79CEA026F04D098
:102DE00010EA5C0F08BF0020704710B5FFF73BFFEB
:102DF00040DFF63E81F00040704700000000000018
:102E000000000000000000000000000000F80000CA
:102E10000000000000333000000000160E00160E07
:102E20000000000000000000000040C07840C078B2
:102E30004000043F04043F040400007088FC083094
:102E40000000001820FF211E0000F008F000E0182C
:102E5000000000211C031E211E0000F008887000E5
:102E600000001E21232419272110000000160E0047
:102E700000000000000000000000000000E0180456
:102E80000200000000071820400000020418E000C3
:102E900000000040201807000000404080F0804003
:102EA00040000202010F01020200000000F00000D9
:102EB00000000101011F01010100000000000000ED
:102EC000000000B0700000000000000000000000E2
:102ED00000000001010101010101000000000000EB
:102EE00000000030300000000000000000008060A2
:102EF0001804006018060100000000E01008081027
:102F0000E000000F102020100F00001010F800004B
:102F100000000020203F20200000007008080888E2
:102F200070000030282422213000003008888848B2
:102F300030000018202020110E000000C02010F8E2
:102F4000000000070424243F240000F808888808B3
:102F500008000019212020110E0000E010888818B8
:102F60000000000F112020110E0000380808C8389A
:102F700008000000003F000000000070880808887A
:102F80007000001C222121221C0000E01008081003
:102F9000E0000000312222110F00000000C0C0003C
:102FA00000000000003030000000000000C0C00041
:102FB0000000000080B07000000000008040201081
:102FC000080000010204081020004040404040403A
:102FD000400004040404040404000008102040809D
:102FE00000000020100804020100007048080808D2
:102FF000F0000000003036010000C030C828E810A2
:10300000E0000718272423140B000000C038E0005C
:103010000000203C23020227382008F888888870A6
:103020000000203F202020110E00C03008080808B2
:103030003800071820202010080008F80808081099
:10304000E000203F202020100F0008F88888E808C2
:103050001000203F20202320180008F88888E80866
:103060001000203F200003000000C030080808388E
:10307000000007182020221E020008F8080000089F
:10308000F808203F210101213F20000808F8080826
:1030900000000020203F2020000000000808F80861
:1030A0000800C08080807F00000008F888C02818D1
:1030B0000800203F20012638200008F80800000002
:1030C0000000203F20202020300008F8F800F8F809
:1030D0000800203F003F003F200008F830C00008F3
:1030E000F808203F200007183F00E01008080810EB
:1030F000E0000F10202020100F0008F80808080832
:10310000F000203F210101010000E0100808081034
:10311000E0000F18242438504F0008F88888888869
:103120007000203F2000030C302000708808080841
:1031300038000038202121221C00180808F808084F
:1031400018000000203F2000000008F808000008D8
:10315000F808001F202020201F000878880000C8E1
:103160003808000007380E010000F80800F80008D1
:10317000F800033C0700073C0300081868808068DB
:10318000180820302C03032C30200838C800C83819
:1031900008000000203F2000000010080808C83880
:1031A00008002038262120201800000000FE02021E
:1031B00002000000007F40404000000C30C00000D2
:1031C0000000000000010638C00000020202FE00FC
:1031D0000000004040407F0000000020100804086C
:1031E00010200000000000000000000000000000AF
:1031F00000008080808080808080000204080000C1
:1032000000000000000000000000000080808080BE
:1032100000000019242222223F2008F800808000AC
:103220000000003F112020110E000000008080806F
:103230000000000E11202020110000000080808876
:10324000F800000E112020103F20000080808080B8
:103250000000001F222222221300008080F08888B4
:1032600088180020203F20200000000080808080FF
:103270008000006B94949493600008F80080808034
:103280000000203F210000203F200080989800008F
:1032900000000020203F20200000000000809898BF
:1032A000000000C08080807F000008F8000080805F
:1032B0008000203F24022D302000000808F8000084
:1032C00000000020203F202000008080808080803F
:1032D0008000203F20003F20003F00808000808051
:1032E000000000203F2100203F20000080808080DF
:1032F0000000001F202020201F0080800080800010
:10330000000080FFA12020110E00000000808080BE
:103310008000000E112020A0FF808080800080802F
:10332000800020203F21200001000000808080805C
:1033300080000033242424241900008080E0808051
:1033400000000000001F202000008080000000809E
:103350008000001F202020103F20808080000080FF
:10336000808000010E30080601008080008000800F
:1033700080800F300C030C300F00008080008080B4
:1033800080000020312E0E312000808080000080DF
:10339000808080818E70180601000080808080808F
:1033A00080000021302C2221300000000000807CB1
:1033B000020200000000003F404000000000FF004B
:1033C000000000000000FF0000000002027C8000FE
:1033D00000000040403F00000000008040408000AE
:1033E000008000000000000101000000000000005B
:1033F0000000002F000000000700070000147F14E9
:103400007F1400242A7F2A120023130864620036E6
:103410004955225000000007000000001C22410016
:10342000000041221C000014083E08140008083E59
:103430000808000000A06000000808080808000054
:1034400060600000002010080402003E5149453E23
:103450000000427F40000042615149460021414541
:103460004B31001814127F10002745454539003CA8
:103470004A49493000017109050300364949493676
:1034800000064949291E0000363600000000563665
:103490000000000814224100001414141414000049
:1034A00041221408000201510906003E4955592ED7
:1034B000007C1211127C007F49494936003E41418F
:1034C0004122007F4141221C007F49494941007F40
:1034D00009090901003E4149497A007F0808087F2F
:1034E0000000417F4100002040413F01007F08145F
:1034F0002241007F40404040007F020C027F007F5D
:103500000408107F003E4141413E007F0909090641
:10351000003E4151215E007F091929460046494974
:1035200049310001017F0101003F4040403F001F41
:103530002040201F003F4038403F006314081463C0
:1035400000070870080700615149454300007F41AA
:103550004100000204081020000041417F000004E7
:10356000020102040040404040400000010204000B
:10357000002054545478007F484444380038444470
:10358000442000384444487F0038545454180008FC
:103590007E0901020018A4A4A47C007F080404781A
:1035A0000000447D4000004080847D00007F1028A2
:1035B00044000000417F4000007C04180478007C37
:1035C0000804047800384444443800FC24242418B7
:1035D0000018242418FC007C0804040800485454F3
:1035E000542000043F444020003C4040207C001C0C
:1035F0002040201C003C4030403C0044281028441F
:10360000001CA0A0A07C004464544C440000087F2F
:1036100041000000007F00000000417F080000081A
:1036200004081008EFBC8C0000000000000000003F
:1036300000000000000000000000583800000000FA
:103640000000000000000000E38082000000000095
:10365000000000000000000000000000000018242E
:10366000241800000000000000000000E4BDA000DD
:10367000008060F8074020180F08C80808281800C4
:10368000010000FF00100C0340807F0001061800BD
:10369000E5A5BD001010F01F10F000808282E292BC
:1036A0008A868000402215081661000040807F0055
:1036B00000000000E4B89600202020FE2020FF201B
:1036C0002020FF20202020000000007F40404744B1
:1036D0004444474040400000E7958C00000000FE55
:1036E000929292FE929292FE0000000008080484DA
:1036F000621E010001FE0204040808000000000030
:10370000FF0101013109090909897101010101FF65
:10371000FF8080808080809681808080808080FF94
:10372000FF01818181FD8991A1C1FD81818101FF1D
:10373000FF808080809F888482819F80808080FF3E
:103740000000000000000000000000000000000079
:103750000000000000000000000000000000000069
:103760000000000000000000000000000000000059
:103770000000000000000000000000000000000049
:103780000000000000000000000000000000000039
:103790000000000000000000000000000000000029
:1037A0000000000000000000000000000000000019
:1037B0000000000000000000000000000000000009
:1037C00000000000000000000000000000000000F9
:1037D00000000000000000000000000000000000E9
:1037E00000000000000000000000000000000000D9
:1037F00000000000000000000000000000000000C9
:1038000000000000000000000000000000000000B8
:1038100000000000000000000000000000000000A8
:103820000000000000000000000000000000000098
:103830000000000000000000000000000000000088
:103840000000000000000000000000000000000078
:103850000000000000000000000000000000000068
:103860000000000000000000000000000000808058
:1038700080808080800000000000000000000000C8
:103880000000000000000000000000000000000038
:103890000000000000000000000000000000000028
:1038A0000000000000000000000000000000000018
:1038B0000000000000000000000000000000000008
:1038C00000000000000000000000000000000000F8
:1038D00000000000000000000000000000000000E8
:1038E00000000000000086C6C6C7C7E3E3E3E3E3C9
:1038F000E1E1E3E7C7C78706000000000000000021
:1039000000000000000000000000000000000010A7
:10391000181C1C1E0E0607878383870707070606E9
:103920000E1E1C1C1C1800000000000000000000FF
:103930000000000000000000000000000000000087
:103940000000000000000000000000000000000077
:103950000000000000000000000000000000000067
:1039600000000000000F0F1F1F3F3F38383030307D
:1039700038383D3F1F1F1F0F0000000000000000EF
:10398000000000000000000000000000000000082F
:103990003C7E7EFEFFEFC7C3C3C3C3C3E7FFFFFF89
:1039A0007E7E3C18000000000000000000000000C7
:1039B0000000000000000000000000000000000007
:1039C000000000000000000000000000103838383F
:1039D0007C7C7C7C7C7C6C6C6C6C6C6C6C6C6C6CC7
:1039E0007C7C7C783838300000000000000000004B
:1039F000000000C0C0C0C0C0000000000000008087
:103A000080808000000000000000C0C0C0C08000B6
:103A100000000000000001010101010100008080A0
:103A2000C0C0C0C0C0C0C0C0C0C0C0C0C0C0C080D6
:103A30008080000000000000000000000000000086
:103A40000000000000000000000000000000000076
:103A50000000000000000000000000000000000066
:103A60000000000000000000000000000000000056
:103A7000000000070F1F1F1F1C181818181C1F0F0D
:103A80000F1F1F3E383838383838393F1F1F0F0F87
:103A9000040000000000000000000000030707070A
:103AA00007070706060E0E0E0E0E0E0E0E0F0F0760
:103AB00007070303000000000000000000000000F2
:103AC00000000000000000000000000000000000F6
:103AD00000000000000000000000000000000000E6
:103AE00000000000000000000000000000000000D6
:103AF00000000000000000000000000000000000C6
:103B000000000000000000000000000000000000B5
:103B100000000000000000000000000000000000A5
:103B20000000000000000000000000000000000095
:103B30000000000000000000000000000000000085
:103B40000000000000000000000000000000000075
:103B50000000000000000000000000000000000065
:103B60000000000000000000000000000000000055
:103B70000000000000000000000000000000000045
:103B80000000000000000000000000000000000035
:103B90000000000000000000000000000000000025
:103BA0000000000000000000000000000000000015
:103BB0000000000000000000000000000000000005
:103BC00000000000000000000000000000000000F5
:103BD0000000000000000000000000000080C0E0C5
:103BE000F0F8F8FCFCFCFCFCFCF8F0F0E0800000D5
:103BF00000000000000000000000000000000000C5
:103C000000000000000000000000000000000000B4
:103C10000080C0E0F0F8F8FCFCFCFCFCF8F8F0F0E8
:103C2000E080000000000000000000000000000034
:103C30000000000000000000000000000000000084
:103C40000000000000000000000000000000000074
:103C500000000000000000000000C0F8FEFFFFFFB1
:103C6000FFFFFFFFFFFFFFFFFFFFFFFFFFFFFFFC67
:103C7000F0800000000000000000000000000000D4
:103C80000000000000000000000000000000C0F87C
:103C9000FEFFFFFFFFFFFFFFFFFFFFFFFFFFFFFF35
:103CA000FFFFFFFCF08000000000000000000000AB
:103CB0000000000000000000000000000000000004
:103CC00000000000000000000000000000000000F4
:103CD000000000000000000000FCFFFFFFFFFFFFEE
:103CE000FFFFFFFFFFFFFFFFFFFFFFFFFFFFFFFFE4
:103CF000FFFF0000000000000000000000000000C6
:103D000000000000000000000000000000FCFFFFB9
:103D1000FFFFFFFFFFFFFFFFFFFFFFFFFFFFFFFFB3
:103D2000FFFFFFFFFFFF0000000000000000000099
:103D30000000000000000000000000000000000083
:103D40000000000000000000000000000000000073
:103D50000000000000000000003FFFFFFFFFFFFF2A
:103D6000FFFFFFFFFFFFFFFFFFFFFFFFFFFFFFFF63
:103D7000FFFF000000000000000000000000000045
:103D8000000000000000000000000000003FFFFFF6
:103D9000FFFFFFFFFFFFFFFFFFFFFFFFFFFFFFFF33
:103DA000FFFFFFFFFFFF0000000000000000000019
:103DB0000000000000000000000000000000000003
:103DC00000000000000000000000000000000000F3
:103DD00000000000000000000000031F7FFFFFFF45
:103DE000FFFFFFFFFFFFFFFFFFFFFFFFFFFFFF3FA3
:103DF0000F010000000000000000000000000000B3
:103E00000000000000000000000000000000031F90
:103E10007FFFFFFFFFFFFFFFFFFFFFFFFFFFFFFF32
:103E2000FFFFFF3F0F010000000000000000000046
:103E30000000000000000000000000000000000082
:103E40000000000000000000000000000000000072
:103E50000000000000000000000000000001030757
:103E60000F1F1F3F3F3F3F3F3F1F1F0F0703000034
:103E70000000000000000000000000000000000042
:103E80000000000000000000000000000000000032
:103E9000000103070F1F1F3F3F3F3F3F3F1F1F0F03
:103EA0000703000000000000000000000000000008
:103EB0000000000000000000000000000000000002
:103EC00000000000000000000000000000000000F2
:103ED00000000000000000000000000000000000E2
:103EE00000000000000000000000000000000000D2
:103EF00000000000000000000000000000000000C2
:103F000000000000000000000000000000000000B1
:103F100000000000000000000000000000000000A1
:103F20000000000000000000000000000000000091
:103F30000000000000000000000000000000000081
:103F40000000000000000000000000000000000071
:103F50000000000000000000000000000000000061
:103F60000000000000000000000000000000000051
:103F70000000000000000000000000000000000041
:103F80000000000000000000000000000000000031
:103F90000000000000000000000000000000000021
:103FA0000000000000000000000000000000000011
:103FB0000000000000000000000000000000000001
:103FC00000000000000000003070F0F0F0E0E0E0E1
:103FD000C0C08080800000000000000000000000E1
:103FE00000000000000000000000000000000000D1
:103FF00000000000000000000000000000000000C1
:1040000000000000000000000000000000000000B0
:1040100000000000000000000000000000000000A0
:10402000000000000000000000808080C0C0E0E0D0
:10403000F0F0707878783000000000000000000098
:10404000000000000000000000000000000001016E
:104050000303030707070F0E1E1E1C3C3C787878ED
:10406000F0F0E0E0E0C0C0C0808000000000000090
:104070000000000000000000000000000000000040
:104080000000000000000000000000000000000030
:10409000000000000000000000C0E0E0F0F0F0F8D8
:1040A000F8F83C1C1E1E0F0F07070707030101014C
:1040B00001000000000000000000000000000000FF
:1040C0000000000000000000000000008080C0C070
:1040D000C0C0E0E0E0E0F07070787838383C3C1C1C
:1040E0001C1E1F1F0F0F0F0F07070300000000000B
:1040F00000000000000000000000000000000000C0
:1041000000000000000000000000000000000000AF
:104110000000000000000000000001030303070787
:10412000070F0F0F0F1E1E1E3C3C3C787878F0F0F6
:10413000F0E0E0E0E0C080000000000000000000CF
:10414000000000000000000000008081030303F372
:104150006101010180E03000000080C0C00000006B
:10416000000000000000000000000000000000004F
:1041700000000000103878F8F8F878383838383807
:1041800038383838383838383878F8F878383000EF
:10419000000000000000000000000000000000001F
:1041A000000000C0E0000080F03000000080F070EF
:1041B00000000101E1C1000000000000000000005B
:1041C000000000000000000000070F0100103F0F7A
:1041D0000000007C1F030000603C0F030000000093
:1041E00000000000000000000000000000000000CF
:1041F00000000000000000000F3FFCF0C0C0C0C085
:10420000C0C0C0C0C0C0C0C0E0FC7F0F0000000044
:10421000000000000000000000000000000000009E
:10422000000000070300003F070000003C1F0000E3
:1042300000103C1F01000000000000000000000012
:10424000000000000000000000000000000000006E
:10425000000000000000000000000000000000005E
:10426000000000000000000000000000000000004E
:10427000000000000000000000000000000000003E
:10428000000000000000000000000000000000002E
:10429000000000000000000000000000000000001E
:1042A000000000000000000000000000000000000E
:1042B00000000000000000000000000000000000FE
:1042C00000000000000000000000000000000000EE
:1042D00000000000000000000000000000000000DE
:1042E00000000000000000000000000000000000CE
:1042F00000000000000000000000000000000000BE
:1043000000000000000000000000000000000000AD
:10431000000000000000000000000000000000009D
:10432000000000000000000000000000000000008D
:10433000000000000000000000000000000000007D
:10434000000000000000000000000000000000006D
:10435000000000000000000000000000000000005D
:10436000000000000000000000000000000000004D
:10437000000000000000000000000000000000003D
:10438000000000000000000000000000000000002D
:10439000000000000000000000000000000000001D
:1043A000000000000000000000000000000000000D
:1043B00000000000000000000000000000000000FD
:1043C00000000000000000C0F838383060E0C08015
:1043D00000000000000000000000000000000000DD
:1043E00000000000000000000000000000000000CD
:1043F00000000000000000000000000000000000BD
:1044000000000000000000000000000000000000AC
:10441000000000000000000000000000000000009C
:10442000000000000000000000000000000080C04C
:10443000E07030387CF080000000000000000000D8
:10444000000000000000FCFF8700000000000103E6
:10445000070E0C183870E0C080000000000000005B
:10446000000000000000000000000000000000004C
:10447000000000000000000000000000000000003C
:10448000000000000000000000000000000000002C
:10449000000000000000000000000000000000001C
:1044A000000000000080C0E070381C0E0607030109
:1044B0000000000000FFFF300000000000000000CE
:1044C00000000000000000071F3C70E0C08080007A
:1044D00000000000000000010103070E1C3870609E
:1044E000C0C08000000000000000000000000000CC
:1044F00000000000000000000000000000000000BC
:1045000080C0C000000000000000000000000000AB
:10451000000000000000000000000080C0E06030EB
:10452000381C0E070301000000000000000080801E
:10453000C0C060381C0F0300000000000000000035
:1045400000000000000000000000000000010183E6
:1045500003070606068C8C0C0C0C18181818181873
:1045600018191B1F1E1C181000000000000000007E
:104570000000000000FEFE0E1C38706070180E0770
:1045800003010103061C3830381C0EFFFF00000039
:1045900000000000000018181C1E1F1B1918181816
:1045A0001898980C0C0C0C0C8C060606070303815B
:1045B00001000000000000000000000000000000FA
:1045C00000000000000000000000000000101E07B6
:1045D0000000C0701C030000000000F03E0000005E
:1045E00000000000000000000000000000000000CB
:1045F0000000000000FFFF8000000000000000003D
:104600000000000000000000000080FFFF0000002C
:104610000000000000000000000000000000001882
:104620000E0300000000380F0100000000003F03EF
:10463000000000000000000000000000000000007A
:10464000000000000000000000000000000000006A
:10465000000000000000000000000000000000005A
:10466000000000000000000000000000000000004A
:10467000000000000000030303030303030303031C
:104680000303030303030303030303030100000005
:10469000000000000000000000000000000000001A
:1046A000000000000000000000000000000000000A
:1046B00000000000000000000000000000000000FA
:1046C00000000000000000000000000000000000EA
:1046D00000000000000000000000000000000000DA
:1046E00000000000000000000000000000000000CA
:1046F00000000000000000000000000000000000BA
:1047000000000000000000000000000000000000A9
:104710000000000000000000000000000000000099
:104720000000000000000000000000000000000089
:104730000000000000000000000000000000000079
:104740000000000000000000000000000000000069
:104750000000000000000000000000000000000059
:104760000000000000000000000000000000000049
:104770000000000000000000000000000000000039
:104780000000000000000000000000000000000029
:104790000000000000000000000000000000000019
:1047A0000000000000000000000000000000000009
:1047B00000000000000000000000000000000000F9
:1047C00000000000000000000000000000000000E9
:1047D00000000000000000000000000000000000D9
:1047E00000000000000000000000000000000000C9
:1047F00000000000000000000000000000000000B9
:1048000000000000000000000000000000000000A8
:104810000000000000000000000000000000000098
:104820000000000000000000000000000000000088
:104830000000000000000000000000000000000078
:1048400000000000000000808080C0C0C0C0C0C068
:10485000C0C0C0C0C0C0C0C0E0E0E0E0E0E0E0E058
:10486000E0E0E0E0E0E0F0F0F0F020000000000028
:104870000000000000000000000000000000000038
:104880000000000000000000000000000000000028
:10489000000008181858F8F8F8F8F8F8F8F8F8F8D8
:1048A000F8F8F8F8F8F8F8F8F8F8F8F8F8F8F0F098
:1048B000F0F0F0F0F0F0F0F0F0F0F00000000000A8
:1048C000000000000080F3F3FBFBFBFBFBFFFFFF9E
:1048D000FFFFFFFFFFFFFFFFFFFFFFFF7D7D7D3D30
:1048E0003D3D3D3D3D1D1F1F1F1F1E0E0E0C0C00AC
:1048F00000000000000000000000000000000000B8
:1049000000000000000000000000000000000000A7
:10491000000000003C7EFFFFFFFFFFFFFFFFFFFFE7
:10492000FFFFFFFFFFFFFFFFFFFFFFFFFFFDFDF9A1
:10493000F9F9F9F9F9F9F1F1F1703000000000002E
:104940000000000000010100113F3F3F1F1F1F1F1B
:104950001F1F1F1F0F0F0F0F0F0F0F0F0F0F070737
:104960000707070707070707030303030300000000
:104970000000808080808080808080808080808037
:104980008080808080808080808080808080000027
:104990000000000000000000000000000000000017
:1049A0000000000000000000000000000000000007
:1049B00000000000000000000000000000000000F7
:1049C00000000000000000000000000000000000E7
:1049D00000000000000000000000000000000000D7
:1049E00000000000000000000000000000000000C7
:1049F0000000FFFF010000000000000000000000B8
:104A000000000000000000000000000081FFFF0027
:104A10000000000000000000000000000000000096
:104A20000000000000000000000000000000000086
:104A30000000000000000000000000000000000076
:104A40000000000000000000000000000000000066
:104A50000000000000000000000000000000000056
:104A60000000000000000000000000000000000046
:104A70000000010101010101010101010101010128
:104A8000010101010101FFFF00000003FF0100001F
:104A90000000000000000000000000000000000016
:104AA0000000000000000000000000000000000006
:104AB00000000000000000000000000000000000F6
:104AC00000000000000000000000000000000000E6
:104AD00000000000000000000000000000000000D6
:104AE00000000000000000000000000000000000C6
:104AF00000000000000000000000000000000000B6
:104B00000000000000000003030602030100000093
:104B10000000000000000000000000000000000095
:104B20000000000000000000000000000000000085
:104B30000000000000000000000000000000000075
:104B40000000000000000000000000000000000065
:104B50000000000000000000000000000000000055
:104B60000000000000000000000000000000000045
:104B70000000000000000000000000000000000035
:104B80000000000000000000000000000000000025
:104B90000000000000000000000000000000000015
:104BA0000000000000000000000000000000000005
:104BB00000000000000000000000000000000000F5
:104BC00000000000000000000000000000000000E5
:104BD00000000000000000000000000000000000D5
:104BE00000000000000000000000000000000000C5
:104BF00000000000000000000000000000000000B5
:104C000000000000000000000000000000000000A4
:104C10000000000000000000000000000000000094
:104C20000000000000000000000000000000000084
:104C30000000000000000000000000000000000074
:104C400000000000000000C0E0F0F8F8FC7C3E3EF0
:104C50001E1F1F1F1F1E3E3E7CFCF8F8F0E0800068
:104C60000000000000000000000000000000000044
:104C700000000000000000000000000000C0000074
:104C80000000000080800000000000000000000024
:104C90000080000000000000000000000000000094
:104CA000000080E0F0F8F8FC7C3E3E1E1F1F1E1E38
:104CB0001E3E3E7CFCF8F8F0E080000000000000A2
:104CC0000000000000F8FFFFFFFF070100000000E8
:104CD000000000000000000000000107FFFFFFFFD0
:104CE000F000000000000000000000000060301C28
:104CF0000603C0E0380E0700C0E0380E07010000D0
:104D0000E0701C07030060701C0703000060380E91
:104D1000070130380E030000000000000000000012
:104D2000F8FFFFFFFF03010000000000000000008B
:104D300000000000000107FFFFFFFFF0000000007F
:104D40000000000000010F3F7FFFFCF8F0E0C0C052
:104D5000808080808080C0C0E0F0F8FEFF7F1F0F61
:104D60000000000000000000000000000000000043
:104D70000000000000000000000000000000000033
:104D80000000000000000000000000000000000023
:104D90000000000000000000000000000000000013
:104DA000010F3F7FFFFCF8F0E0C0C0808080808072
:104DB00080C0C0E0F0F8FEFF7F3F0F010000000060
:104DC00000000000000000000000010303070707C7
:104DD000070F0F0F0F0F0707070301010000000067
:104DE00000000000000000000000000000000000C3
:104DF00000007FFC8000000000000000000000E0D8
:104E0000FFFE800000000000000000000080FE7E29
:104E10000000000000000000000000000000000092
:104E20000000000000010303070707070F0F0F0F23
:104E30000707070703010100000000000000000051
:104E40000000000000000000000000000000000062
:104E50000000000000000000000000000000000052
:104E60000000000000000000000000000000000042
:104E700000000001030306060606060606060301F7
:104E800001010307060606060606060603030100DF
:104E90000000000000000000000000000000000012
:104EA0000000000000000000000000000000000002
:104EB00000000000000000000000000000000000F2
:104EC00000000000000000000000000000000000E2
:104ED00000000000000000000000000000000000D2
:104EE00000000000000000000000000000000000C2
:104EF00000000000000000000000000000000000B2
:104F000000000000000000000000000000000000A1
:104F10000000000000000000000000000000000091
:104F20000000000000000000000000000000000081
:104F30000000000000000000000000000000000071
:104F40000000000000000000000000000000000061
:104F50000000000000000000000000000000000051
:104F60000000000000000000000000000000000041
:104F70000000000000000000000000000000000031
:104F80000000000000000000000000000000000021
:104F90000000000000000000000000000000000011
:104FA0000000000000000000000000000000000001
:104FB00000000000000000000000000000000000F1
:104FC0000000E0E0E0E0C0C0C08080000000000021
:104FD00000000000000000000000000000000000D1
:104FE00000000000000000000000000000000000C1
:104FF00000000000000000000000000000000000B1
:1050000000000000000000000000000000000000A0
:105010000000000000000000000000000000000090
:105020000000000000000000000000000000000080
:10503000008080C0C0C0E0E0F0F0F00000000000A0
:1050400000000001010303030707070F0F0F1E1ED7
:105050003E3C7C7C78F8F0F0E0E0E0E0C0C080808E
:1050600080000000000000000000000000000000C0
:105070000000000000000000000000000000000030
:105080000000000000000000000000000000000020
:10509000000000000000000000000000008080C050
:1050A000C0C0E0E0E0F0F0F8F8F8BCBC9E9E9F8F36
:1050B0008F8FC7C7C3C3C3C1C1C0C0C00000000039
:1050C00000000000081C1C1C1C1C1C1C1C1C1C1CA4
:1050D0009C9C9C9CDCDCDCDCFDFDFFFFFFFFFFFFFC
:1050E0007F7F7F3E3E3E3C1C000000000000000031
:1050F000E0E0E00000000000000000000000000010
:1051000000C0C0C00000000000000000000000C09F
:10511000C0C00000000000000000000F0F0F1F1FA4
:105120001F3F3F3F3F7F7F7FFBF3F3F3E3E3E3E387
:10513000C1C1C181818101010101000000000000A5
:105140000000000000001C3C3C1E1E1E1F0F0F0F25
:105150000F87070707030303010101010000000097
:10516000000000000000000000000000000000003F
:10517000031F7FF8E0C0C0808080808080C0E0F0A6
:10518000783F7FFFE080000000000000000080F317
:10519000FFFF000000000000000000000000000011
:1051A00000000000000000000000000101010303F6
:1051B00003038787070F0F0F0F0E0C00000000007E
:1051C00000000000F8FC0000C0FE7F02000080F03C
:1051D0007F0F010000C0F81E040000000000000066
:1051E00000000000000000000000000000000000BF
:1051F000000000000003FFFFFF03030303010100A1
:10520000000000010307070FFEFE3E060707070325
:10521000010000000000000000000000000000008D
:105220000000000000F07E0C0000F87F0700000086
:10523000E0FC1F030000C0F03E060000000000007C
:1052400000000000010000000303000000040F073D
:105250000000000006070000000000000000000041
:10526000000000000000000000000000000000003E
:105270000000000000000003070F1E1C1C1C1C1C6B
:105280001C1C1C1C1C1C1E0F0F0300000000000037
:10529000000000000000000000000000000000000E
:1052A00000000000000000000000030000000007F4
:1052B00007000000000207010000000000000000DD
:1052C00000000000000000000000000000000000DE
:1052D00000000000000000000000000000000000CE
:1052E00000000000000000000000000000000000BE
:1052F00000000000000000000000000000000000AE
:10530000000000000000000000000000000000009D
:10531000000000000000000000000000000000008D
:10532000000000000000000000000000000000007D
:10533000000000000000000000000000000000006D
:10534000605300080000002034000000280100081D
:105350009453000834000020640A0000440100084F
:10536000000000000102030401020304060708090B
:105370000204060800000000010000000100000017
:1053800000000000C800060000000000020000004D
:045390000000000019
:04000005080000ED02
:00000001FF
